{
  "contractName": "Bet",
  "abi": [
    {
      "inputs": [
        {
          "internalType": "uint256",
          "name": "_id",
          "type": "uint256"
        }
      ],
      "payable": true,
      "stateMutability": "payable",
      "type": "constructor"
    },
    {
      "constant": true,
      "inputs": [],
      "name": "amount",
      "outputs": [
        {
          "internalType": "uint256",
          "name": "",
          "type": "uint256"
        }
      ],
      "payable": false,
      "stateMutability": "view",
      "type": "function"
    },
    {
      "constant": true,
      "inputs": [],
      "name": "bettor",
      "outputs": [
        {
          "internalType": "address payable",
          "name": "",
          "type": "address"
        }
      ],
      "payable": false,
      "stateMutability": "view",
      "type": "function"
    },
    {
      "constant": true,
      "inputs": [],
      "name": "coefficient",
      "outputs": [
        {
          "internalType": "int256",
          "name": "",
          "type": "int256"
        }
      ],
      "payable": false,
      "stateMutability": "view",
      "type": "function"
    },
    {
      "constant": true,
      "inputs": [],
      "name": "id",
      "outputs": [
        {
          "internalType": "uint256",
          "name": "",
          "type": "uint256"
        }
      ],
      "payable": false,
      "stateMutability": "view",
      "type": "function"
    },
    {
      "constant": true,
      "inputs": [],
      "name": "isCompleted",
      "outputs": [
        {
          "internalType": "bool",
          "name": "",
          "type": "bool"
        }
      ],
      "payable": false,
      "stateMutability": "view",
      "type": "function"
    },
    {
      "constant": true,
      "inputs": [],
      "name": "matchoff",
      "outputs": [
        {
          "internalType": "string",
          "name": "",
          "type": "string"
        }
      ],
      "payable": false,
      "stateMutability": "view",
      "type": "function"
    },
    {
      "constant": true,
      "inputs": [],
      "name": "sport",
      "outputs": [
        {
          "internalType": "string",
          "name": "",
          "type": "string"
        }
      ],
      "payable": false,
      "stateMutability": "view",
      "type": "function"
    },
    {
      "constant": true,
      "inputs": [],
      "name": "time",
      "outputs": [
        {
          "internalType": "uint256",
          "name": "",
          "type": "uint256"
        }
      ],
      "payable": false,
      "stateMutability": "view",
      "type": "function"
    },
    {
      "constant": false,
      "inputs": [
        {
          "internalType": "string",
          "name": "_sport",
          "type": "string"
        },
        {
          "internalType": "string",
          "name": "_matchoff",
          "type": "string"
        },
        {
          "internalType": "int256",
          "name": "_coeff",
          "type": "int256"
        }
      ],
      "name": "params",
      "outputs": [],
      "payable": false,
      "stateMutability": "nonpayable",
      "type": "function"
    },
    {
      "constant": false,
      "inputs": [
        {
          "internalType": "address payable",
          "name": "_target",
          "type": "address"
        }
      ],
      "name": "sendMoney",
      "outputs": [],
      "payable": false,
      "stateMutability": "nonpayable",
      "type": "function"
    },
    {
      "constant": false,
      "inputs": [],
      "name": "receiveMoney",
      "outputs": [],
      "payable": true,
      "stateMutability": "payable",
      "type": "function"
    },
    {
      "constant": false,
      "inputs": [],
      "name": "withdraw",
      "outputs": [],
      "payable": false,
      "stateMutability": "nonpayable",
      "type": "function"
    },
    {
      "constant": false,
      "inputs": [],
      "name": "getVal",
      "outputs": [
        {
          "internalType": "uint256",
          "name": "",
          "type": "uint256"
        }
      ],
      "payable": false,
      "stateMutability": "nonpayable",
      "type": "function"
    },
    {
      "constant": false,
      "inputs": [],
      "name": "complete",
      "outputs": [],
      "payable": false,
      "stateMutability": "nonpayable",
      "type": "function"
    }
  ],
  "bytecode": "0x6080604052604051610a6f380380610a6f8339818101604052602081101561002657600080fd5b81019080805190602001909291905050508060008190555042600181905550600034905032600660006101000a81548173ffffffffffffffffffffffffffffffffffffffff021916908373ffffffffffffffffffffffffffffffffffffffff160217905550806004819055506000600660146101000a81548160ff02191690831515021790555050506109b1806100be6000396000f3fe6080604052600436106100dd5760003560e01c8063522e11771161007f578063af640d0f11610059578063af640d0f14610475578063afe9d22f146104a0578063e1cb0e52146104f7578063fa391c6414610522576100dd565b8063522e1177146104295780636d26ec1814610440578063aa8c217c1461044a576100dd565b8063338ccd78116100bb578063338ccd78146101c857806333a1726f146102195780633ccfd60b146103825780633f5c0d3f14610399576100dd565b806316ada547146100e25780631b9c515b1461010d5780632a18838a14610138575b600080fd5b3480156100ee57600080fd5b506100f7610551565b6040518082815260200191505060405180910390f35b34801561011957600080fd5b50610122610557565b6040518082815260200191505060405180910390f35b34801561014457600080fd5b5061014d61055d565b6040518080602001828103825283818151815260200191508051906020019080838360005b8381101561018d578082015181840152602081019050610172565b50505050905090810190601f1680156101ba5780820380516001836020036101000a031916815260200191505b509250505060405180910390f35b3480156101d457600080fd5b50610217600480360360208110156101eb57600080fd5b81019080803573ffffffffffffffffffffffffffffffffffffffff1690602001909291905050506105fb565b005b34801561022557600080fd5b506103806004803603606081101561023c57600080fd5b810190808035906020019064010000000081111561025957600080fd5b82018360208201111561026b57600080fd5b8035906020019184600183028401116401000000008311171561028d57600080fd5b91908080601f016020809104026020016040519081016040528093929190818152602001838380828437600081840152601f19601f820116905080830192505050505050509192919290803590602001906401000000008111156102f057600080fd5b82018360208201111561030257600080fd5b8035906020019184600183028401116401000000008311171561032457600080fd5b91908080601f016020809104026020016040519081016040528093929190818152602001838380828437600081840152601f19601f82011690508083019250505050505050919291929080359060200190929190505050610662565b005b34801561038e57600080fd5b5061039761069c565b005b3480156103a557600080fd5b506103ae61079c565b6040518080602001828103825283818151815260200191508051906020019080838360005b838110156103ee5780820151818401526020810190506103d3565b50505050905090810190601f16801561041b5780820380516001836020036101000a031916815260200191505b509250505060405180910390f35b34801561043557600080fd5b5061043e61083a565b005b610448610857565b005b34801561045657600080fd5b5061045f61088a565b6040518082815260200191505060405180910390f35b34801561048157600080fd5b5061048a610890565b6040518082815260200191505060405180910390f35b3480156104ac57600080fd5b506104b5610896565b604051808273ffffffffffffffffffffffffffffffffffffffff1673ffffffffffffffffffffffffffffffffffffffff16815260200191505060405180910390f35b34801561050357600080fd5b5061050c6108bc565b6040518082815260200191505060405180910390f35b34801561052e57600080fd5b506105376108c4565b604051808215151515815260200191505060405180910390f35b60015481565b60055481565b60038054600181600116156101000203166002900480601f0160208091040260200160405190810160405280929190818152602001828054600181600116156101000203166002900480156105f35780601f106105c8576101008083540402835291602001916105f3565b820191906000526020600020905b8154815290600101906020018083116105d657829003601f168201915b505050505081565b6001600660146101000a81548160ff0219169083151502179055508073ffffffffffffffffffffffffffffffffffffffff166108fc6004549081150290604051600060405180830381858888f1935050505015801561065e573d6000803e3d6000fd5b5050565b82600290805190602001906106789291906108d7565b50816003908051906020019061068f9291906108d7565b5080600581905550505050565b60011515600660149054906101000a900460ff161515146106b957fe5b600060045411610731576040517f08c379a00000000000000000000000000000000000000000000000000000000081526004018080602001828103825260118152602001807f4e6570616b616e6b612070696e6967752100000000000000000000000000000081525060200191505060405180910390fd5b600660009054906101000a900473ffffffffffffffffffffffffffffffffffffffff1673ffffffffffffffffffffffffffffffffffffffff166108fc479081150290604051600060405180830381858888f19350505050158015610799573d6000803e3d6000fd5b50565b60028054600181600116156101000203166002900480601f0160208091040260200160405190810160405280929190818152602001828054600181600116156101000203166002900480156108325780601f1061080757610100808354040283529160200191610832565b820191906000526020600020905b81548152906001019060200180831161081557829003601f168201915b505050505081565b6001600660146101000a81548160ff021916908315150217905550565b6000349050806004600082825401925050819055506001600660146101000a81548160ff02191690831515021790555050565b60045481565b60005481565b600660009054906101000a900473ffffffffffffffffffffffffffffffffffffffff1681565b600047905090565b600660149054906101000a900460ff1681565b828054600181600116156101000203166002900490600052602060002090601f016020900481019282601f1061091857805160ff1916838001178555610946565b82800160010185558215610946579182015b8281111561094557825182559160200191906001019061092a565b5b5090506109539190610957565b5090565b61097991905b8082111561097557600081600090555060010161095d565b5090565b9056fea265627a7a72315820d2ab64c64290ace60934d371478c7c254756657f63c0c1a259eef751d21ad34a64736f6c63430005100032",
  "source": "pragma solidity ^0.5.0; //0.5.0\r\n\r\ncontract Bet {\r\n    //state variables\r\n    uint public id;\r\n    uint256 public time; //kada? 2020-12-19\r\n    string public sport; //\"Basketball\", \"Boxing\" ...\r\n    string public matchoff; //\"Rytas - Zalgiris\", \"Connor McGregor - Khabib Nurmagomedov\" ...\r\n    //unique\r\n    uint256 public amount; //kiek pinigu pastate?\r\n    //unique\r\n    int public coefficient; //kofas gali buti teigiamas arba neigiamas\r\n    //unique\r\n    address payable public bettor; //kas pastate uz komanda X su kokiu kofu\r\n    bool public isCompleted; //ar jau gavo pinigu uz lazybas(arba jas atsauke)?\r\n\r\n    //sukonstruojame statyma\r\n    constructor(uint _id) public payable {\r\n        //...\r\n        id = _id;\r\n        time = now;\r\n        uint256 _amt = msg.value;\r\n        bettor = tx.origin;\r\n        amount = _amt;\r\n        isCompleted = false;\r\n    }\r\n\r\n    function params(string memory _sport, string memory _matchoff, int _coeff) public {\r\n        sport = _sport;\r\n        matchoff = _matchoff;\r\n        coefficient = _coeff;\r\n\r\n    }\r\n\r\n    function sendMoney(address payable _target) public {\r\n        isCompleted = true;\r\n        _target.transfer(amount);\r\n    }\r\n\r\n    //gauna laimetojas\r\n    function receiveMoney() public payable {\r\n        uint256 _amt = msg.value;\r\n        amount += _amt;\r\n        isCompleted = true;\r\n    }\r\n\r\n    //pinigus galima issimt\r\n    function withdraw() public{\r\n        //validate\r\n        assert(isCompleted == true);\r\n        require(amount > 0, \"Nepakanka pinigu!\");\r\n        //transfer\r\n\r\n        bettor.transfer(address(this).balance);\r\n    }\r\n\r\n    function getVal() public returns (uint256)  {\r\n        return address(this).balance;\r\n    }\r\n\r\n    function complete() public{\r\n        isCompleted = true;\r\n    }\r\n}",
  "sourcePath": "C:\\Users\\Mindaugas\\Documents\\backend\\dLazybos\\dLazybos\\src\\contracts\\Bet.sol",
  "compiler": {
    "name": "solc",
    "version": "0.5.16+commit.9c3226ce.Emscripten.clang"
  },
  "schemaVersion": "3.3.3",
  "updatedAt": "2020-12-24T11:49:46.639Z",
  "networkType": "ethereum",
  "devdoc": {
    "methods": {}
  },
  "userdoc": {
    "methods": {}
  }
}