{
  "contractName": "BettingManager",
  "abi": [
    {
      "inputs": [],
      "payable": false,
      "stateMutability": "nonpayable",
      "type": "constructor"
    },
    {
      "anonymous": false,
      "inputs": [
        {
          "indexed": false,
          "internalType": "uint256",
          "name": "id",
          "type": "uint256"
        },
        {
          "indexed": false,
          "internalType": "string",
          "name": "sports",
          "type": "string"
        },
        {
          "indexed": false,
          "internalType": "string",
          "name": "matchoff",
          "type": "string"
        },
        {
          "indexed": false,
          "internalType": "address payable",
          "name": "bettor",
          "type": "address"
        },
        {
          "indexed": false,
          "internalType": "bool",
          "name": "completed",
          "type": "bool"
        }
      ],
      "name": "BetChecked",
      "type": "event"
    },
    {
      "anonymous": false,
      "inputs": [
        {
          "indexed": false,
          "internalType": "uint256",
          "name": "id",
          "type": "uint256"
        },
        {
          "indexed": false,
          "internalType": "uint256",
          "name": "time",
          "type": "uint256"
        },
        {
          "indexed": false,
          "internalType": "string",
          "name": "sport",
          "type": "string"
        },
        {
          "indexed": false,
          "internalType": "string",
          "name": "matchoff",
          "type": "string"
        },
        {
          "indexed": false,
          "internalType": "uint256",
          "name": "amount",
          "type": "uint256"
        },
        {
          "indexed": false,
          "internalType": "int256",
          "name": "coefficient",
          "type": "int256"
        },
        {
          "indexed": false,
          "internalType": "address payable",
          "name": "bettor",
          "type": "address"
        },
        {
          "indexed": false,
          "internalType": "bool",
          "name": "completed",
          "type": "bool"
        }
      ],
      "name": "BetCreated",
      "type": "event"
    },
    {
      "anonymous": false,
      "inputs": [
        {
          "indexed": false,
          "internalType": "int256",
          "name": "sbCoef",
          "type": "int256"
        },
        {
          "indexed": false,
          "internalType": "int256",
          "name": "coefDiff",
          "type": "int256"
        },
        {
          "indexed": false,
          "internalType": "int256",
          "name": "result",
          "type": "int256"
        }
      ],
      "name": "CoefficientDiffFound",
      "type": "event"
    },
    {
      "anonymous": false,
      "inputs": [
        {
          "indexed": false,
          "internalType": "int256",
          "name": "sbCoef",
          "type": "int256"
        },
        {
          "indexed": false,
          "internalType": "int256",
          "name": "coefDiff",
          "type": "int256"
        },
        {
          "indexed": false,
          "internalType": "int256",
          "name": "result",
          "type": "int256"
        }
      ],
      "name": "CoefficientDiffNotFound",
      "type": "event"
    },
    {
      "anonymous": false,
      "inputs": [
        {
          "indexed": false,
          "internalType": "bytes",
          "name": "data",
          "type": "bytes"
        }
      ],
      "name": "ExceptionThrown",
      "type": "event"
    },
    {
      "anonymous": false,
      "inputs": [
        {
          "indexed": false,
          "internalType": "uint256",
          "name": "balance_",
          "type": "uint256"
        }
      ],
      "name": "ThisBalance",
      "type": "event"
    },
    {
      "anonymous": false,
      "inputs": [],
      "name": "TransactionFailed",
      "type": "event"
    },
    {
      "anonymous": false,
      "inputs": [],
      "name": "TransactionSuccessful",
      "type": "event"
    },
    {
      "anonymous": false,
      "inputs": [
        {
          "indexed": false,
          "internalType": "address payable",
          "name": "addr",
          "type": "address"
        },
        {
          "indexed": false,
          "internalType": "address payable",
          "name": "sendr",
          "type": "address"
        },
        {
          "indexed": false,
          "internalType": "uint256",
          "name": "amount",
          "type": "uint256"
        }
      ],
      "name": "WinnerPaid",
      "type": "event"
    },
    {
      "anonymous": false,
      "inputs": [
        {
          "indexed": false,
          "internalType": "address payable",
          "name": "addr",
          "type": "address"
        },
        {
          "indexed": false,
          "internalType": "string",
          "name": "sport",
          "type": "string"
        },
        {
          "indexed": false,
          "internalType": "string",
          "name": "matchoff",
          "type": "string"
        }
      ],
      "name": "WinnerPicked",
      "type": "event"
    },
    {
      "constant": true,
      "inputs": [],
      "name": "BetCounter",
      "outputs": [
        {
          "internalType": "uint256",
          "name": "",
          "type": "uint256"
        }
      ],
      "payable": false,
      "stateMutability": "view",
      "type": "function"
    },
    {
      "constant": true,
      "inputs": [
        {
          "internalType": "uint256",
          "name": "",
          "type": "uint256"
        }
      ],
      "name": "bets",
      "outputs": [
        {
          "internalType": "contract Bet",
          "name": "",
          "type": "address"
        }
      ],
      "payable": false,
      "stateMutability": "view",
      "type": "function"
    },
    {
      "constant": true,
      "inputs": [],
      "name": "bettingName",
      "outputs": [
        {
          "internalType": "string",
          "name": "",
          "type": "string"
        }
      ],
      "payable": false,
      "stateMutability": "view",
      "type": "function"
    },
    {
      "constant": false,
      "inputs": [
        {
          "internalType": "string",
          "name": "_sport",
          "type": "string"
        },
        {
          "internalType": "string",
          "name": "_matchoff",
          "type": "string"
        },
        {
          "internalType": "int256",
          "name": "_coefficient",
          "type": "int256"
        }
      ],
      "name": "createBet",
      "outputs": [],
      "payable": true,
      "stateMutability": "payable",
      "type": "function"
    },
    {
      "constant": false,
      "inputs": [
        {
          "internalType": "string",
          "name": "_sport",
          "type": "string"
        },
        {
          "internalType": "string",
          "name": "_matchoff",
          "type": "string"
        },
        {
          "internalType": "int256",
          "name": "resultCoefficient",
          "type": "int256"
        }
      ],
      "name": "commitBets",
      "outputs": [],
      "payable": false,
      "stateMutability": "nonpayable",
      "type": "function"
    }
  ],
  "bytecode": "0x6080604052600080553480156200001557600080fd5b506040518060400160405280601a81526020017f646563656e7472616c697a756f746f73206c617a79626f733a2000000000000081525060029080519060200190620000639291906200006a565b5062000119565b828054600181600116156101000203166002900490600052602060002090601f016020900481019282601f10620000ad57805160ff1916838001178555620000de565b82800160010185558215620000de579182015b82811115620000dd578251825591602001919060010190620000c0565b5b509050620000ed9190620000f1565b5090565b6200011691905b8082111562000112576000816000905550600101620000f8565b5090565b90565b6120cb80620001296000396000f3fe60806040526004361061004a5760003560e01c806322af00fa1461004f57806329f4bc3a146100ca57806347442de01461015a5780637bc0e007146101855780639d1370411461025d575b600080fd5b34801561005b57600080fd5b506100886004803603602081101561007257600080fd5b8101908080359060200190929190505050610342565b604051808273ffffffffffffffffffffffffffffffffffffffff1673ffffffffffffffffffffffffffffffffffffffff16815260200191505060405180910390f35b3480156100d657600080fd5b506100df610375565b6040518080602001828103825283818151815260200191508051906020019080838360005b8381101561011f578082015181840152602081019050610104565b50505050905090810190601f16801561014c5780820380516001836020036101000a031916815260200191505b509250505060405180910390f35b34801561016657600080fd5b5061016f610413565b6040518082815260200191505060405180910390f35b61025b6004803603606081101561019b57600080fd5b81019080803590602001906401000000008111156101b857600080fd5b8201836020820111156101ca57600080fd5b803590602001918460018302840111640100000000831117156101ec57600080fd5b90919293919293908035906020019064010000000081111561020d57600080fd5b82018360208201111561021f57600080fd5b8035906020019184600183028401116401000000008311171561024157600080fd5b909192939192939080359060200190929190505050610419565b005b34801561026957600080fd5b506103406004803603606081101561028057600080fd5b810190808035906020019064010000000081111561029d57600080fd5b8201836020820111156102af57600080fd5b803590602001918460018302840111640100000000831117156102d157600080fd5b9091929391929390803590602001906401000000008111156102f257600080fd5b82018360208201111561030457600080fd5b8035906020019184600183028401116401000000008311171561032657600080fd5b90919293919293908035906020019092919050505061090c565b005b60016020528060005260406000206000915054906101000a900473ffffffffffffffffffffffffffffffffffffffff1681565b60028054600181600116156101000203166002900480601f01602080910402602001604051908101604052809291908181526020018280546001816001161561010002031660029004801561040b5780601f106103e05761010080835404028352916020019161040b565b820191906000526020600020905b8154815290600101906020018083116103ee57829003601f168201915b505050505081565b60005481565b60008585905011610492576040517f08c379a00000000000000000000000000000000000000000000000000000000081526004018080602001828103825260148152602001807f7265766572743a2073706f72747320656d70747900000000000000000000000081525060200191505060405180910390fd5b6000838390501161050b576040517f08c379a00000000000000000000000000000000000000000000000000000000081526004018080602001828103825260168152602001807f7265766572743a206d617463686f666620656d7074790000000000000000000081525060200191505060405180910390fd5b6000811415610582576040517f08c379a000000000000000000000000000000000000000000000000000000000815260040180806020018281038252601c8152602001807f636f656666696369656e74206d757374206e6f74206265206e756c6c0000000081525060200191505060405180910390fd5b600034116105f8576040517f08c379a000000000000000000000000000000000000000000000000000000000815260040180806020018281038252601a8152602001807f626574206d6f6e6579206d757374206e6f74206265206e756c6c00000000000081525060200191505060405180910390fd5b7fa23e90d230c6d1d30c1081cd4e97e373af2719e2ecac3ca1f39ed3474c7e357b476040518082815260200191505060405180910390a14760005460405161063f9061161a565b808281526020019150506040518091039082f080158015610664573d6000803e3d6000fd5b509050600160008054815260200190815260200160002060006101000a81548173ffffffffffffffffffffffffffffffffffffffff021916908373ffffffffffffffffffffffffffffffffffffffff1602179055506000600160008054815260200190815260200160002060009054906101000a900473ffffffffffffffffffffffffffffffffffffffff169050600160008054815260200190815260200160002060009054906101000a900473ffffffffffffffffffffffffffffffffffffffff1673ffffffffffffffffffffffffffffffffffffffff166333a1726f87878787876040518663ffffffff1660e01b81526004018080602001806020018481526020018381038352888882818152602001925080828437600081840152601f19601f8201169050808301925050508381038252868682818152602001925080828437600081840152601f19601f820116905080830192505050975050505050505050600060405180830381600087803b1580156107e157600080fd5b505af11580156107f5573d6000803e3d6000fd5b505050507fff09d62c78aed304b5855a65a64d4e1c7b9d0afb8349b835f72e83f3969ed07e60005442888888883489336000604051808b81526020018a815260200180602001806020018781526020018681526020018573ffffffffffffffffffffffffffffffffffffffff1673ffffffffffffffffffffffffffffffffffffffff1681526020018415151515815260200183810383528b8b82818152602001925080828437600081840152601f19601f8201169050808301925050508381038252898982818152602001925080828437600081840152601f19601f8201169050808301925050509c5050505050505050505050505060405180910390a16000808154809291906001019190505550505050505050565b6060806000546040519080825280602002602001820160405280156109405781602001602082028038833980820191505090505b50905060008090506000806000612710905060008090505b600054811015610fc55760006001600083815260200190815260200160002060009054906101000a900473ffffffffffffffffffffffffffffffffffffffff169050600015158173ffffffffffffffffffffffffffffffffffffffff1663fa391c646040518163ffffffff1660e01b815260040160206040518083038186803b1580156109e457600080fd5b505afa1580156109f8573d6000803e3d6000fd5b505050506040513d6020811015610a0e57600080fd5b81019080805190602001909291905050501515148015610adb5750600073ffffffffffffffffffffffffffffffffffffffff168173ffffffffffffffffffffffffffffffffffffffff1663afe9d22f6040518163ffffffff1660e01b815260040160206040518083038186803b158015610a8757600080fd5b505afa158015610a9b573d6000803e3d6000fd5b505050506040513d6020811015610ab157600080fd5b810190808051906020019092919050505073ffffffffffffffffffffffffffffffffffffffff1614155b8015610c4957508c8c60405180838380828437808301925050509250505060405180910390208173ffffffffffffffffffffffffffffffffffffffff16633f5c0d3f6040518163ffffffff1660e01b815260040160006040518083038186803b158015610b4757600080fd5b505afa158015610b5b573d6000803e3d6000fd5b505050506040513d6000823e3d601f19601f820116820180604052506020811015610b8557600080fd5b8101908080516040519392919084640100000000821115610ba557600080fd5b83820191506020820185811115610bbb57600080fd5b8251866001820283011164010000000082111715610bd857600080fd5b8083526020830192505050908051906020019080838360005b83811015610c0c578082015181840152602081019050610bf1565b50505050905090810190601f168015610c395780820380516001836020036101000a031916815260200191505b5060405250505080519060200120145b8015610db757508a8a60405180838380828437808301925050509250505060405180910390208173ffffffffffffffffffffffffffffffffffffffff16632a18838a6040518163ffffffff1660e01b815260040160006040518083038186803b158015610cb557600080fd5b505afa158015610cc9573d6000803e3d6000fd5b505050506040513d6000823e3d601f19601f820116820180604052506020811015610cf357600080fd5b8101908080516040519392919084640100000000821115610d1357600080fd5b83820191506020820185811115610d2957600080fd5b8251866001820283011164010000000082111715610d4657600080fd5b8083526020830192505050908051906020019080838360005b83811015610d7a578082015181840152602081019050610d5f565b50505050905090810190601f168015610da75780820380516001836020036101000a031916815260200191505b5060405250505080519060200120145b15610fb7578073ffffffffffffffffffffffffffffffffffffffff1663af640d0f6040518163ffffffff1660e01b815260040160206040518083038186803b158015610e0257600080fd5b505afa158015610e16573d6000803e3d6000fd5b505050506040513d6020811015610e2c57600080fd5b8101908080519060200190929190505050878781518110610e4957fe5b602002602001018181525050858060010196505060008173ffffffffffffffffffffffffffffffffffffffff16631b9c515b6040518163ffffffff1660e01b815260040160206040518083038186803b158015610ea557600080fd5b505afa158015610eb9573d6000803e3d6000fd5b505050506040513d6020811015610ecf57600080fd5b81019080805190602001909291905050509050610eeb846115fe565b610f06610ef78c6115fe565b610f00846115fe565b036115fe565b1215610fb457610f27610f188b6115fe565b610f21836115fe565b036115fe565b93508173ffffffffffffffffffffffffffffffffffffffff1663afe9d22f6040518163ffffffff1660e01b815260040160206040518083038186803b158015610f6f57600080fd5b505afa158015610f83573d6000803e3d6000fd5b505050506040513d6020811015610f9957600080fd5b81019080805190602001909291905050509450819550610fb5565b5b505b508080600101915050610958565b507fc97176eab484a618cf347128fff6c6649aa0c8da26a517692d065f45f01062dc828c8c8c8c604051808673ffffffffffffffffffffffffffffffffffffffff1673ffffffffffffffffffffffffffffffffffffffff16815260200180602001806020018381038352878782818152602001925080828437600081840152601f19601f8201169050808301925050508381038252858582818152602001925080828437600081840152601f19601f82011690508083019250505097505050505050505060405180910390a160008090505b848110156115f05760008682815181106110ad57fe5b602002602001015190506000600160008985815181106110c957fe5b6020026020010151815260200190815260200160002060009054906101000a900473ffffffffffffffffffffffffffffffffffffffff1673ffffffffffffffffffffffffffffffffffffffff1663afe9d22f6040518163ffffffff1660e01b815260040160206040518083038186803b15801561114557600080fd5b505afa158015611159573d6000803e3d6000fd5b505050506040513d602081101561116f57600080fd5b8101908080519060200190929190505050905060006001600084815260200190815260200160002060009054906101000a900473ffffffffffffffffffffffffffffffffffffffff1690508073ffffffffffffffffffffffffffffffffffffffff1663522e11776040518163ffffffff1660e01b8152600401600060405180830381600087803b15801561120257600080fd5b505af1158015611216573d6000803e3d6000fd5b50505050806001600085815260200190815260200160002060006101000a81548173ffffffffffffffffffffffffffffffffffffffff021916908373ffffffffffffffffffffffffffffffffffffffff1602179055508573ffffffffffffffffffffffffffffffffffffffff168173ffffffffffffffffffffffffffffffffffffffff1663afe9d22f6040518163ffffffff1660e01b815260040160206040518083038186803b1580156112c957600080fd5b505afa1580156112dd573d6000803e3d6000fd5b505050506040513d60208110156112f357600080fd5b810190808051906020019092919050505073ffffffffffffffffffffffffffffffffffffffff16146115e0577f8122931c7218f1ad60bd0a36041005a4a9e8d22ec431443cdce207abdf115490868273ffffffffffffffffffffffffffffffffffffffff1663afe9d22f6040518163ffffffff1660e01b815260040160206040518083038186803b15801561138757600080fd5b505afa15801561139b573d6000803e3d6000fd5b505050506040513d60208110156113b157600080fd5b81019080805190602001909291905050508373ffffffffffffffffffffffffffffffffffffffff1663aa8c217c6040518163ffffffff1660e01b815260040160206040518083038186803b15801561140857600080fd5b505afa15801561141c573d6000803e3d6000fd5b505050506040513d602081101561143257600080fd5b8101908080519060200190929190505050604051808473ffffffffffffffffffffffffffffffffffffffff1673ffffffffffffffffffffffffffffffffffffffff1681526020018373ffffffffffffffffffffffffffffffffffffffff1673ffffffffffffffffffffffffffffffffffffffff168152602001828152602001935050505060405180910390a160008173ffffffffffffffffffffffffffffffffffffffff1663aa8c217c6040518163ffffffff1660e01b815260040160206040518083038186803b15801561150657600080fd5b505afa15801561151a573d6000803e3d6000fd5b505050506040513d602081101561153057600080fd5b810190808051906020019092919050505011156115df578073ffffffffffffffffffffffffffffffffffffffff1663338ccd78876040518263ffffffff1660e01b8152600401808273ffffffffffffffffffffffffffffffffffffffff1673ffffffffffffffffffffffffffffffffffffffff168152602001915050600060405180830381600087803b1580156115c657600080fd5b505af11580156115da573d6000803e3d6000fd5b505050505b5b5050508080600101915050611097565b505050505050505050505050565b6000808212156116115781600003611613565b815b9050919050565b610a6f806116288339019056fe6080604052604051610a6f380380610a6f8339818101604052602081101561002657600080fd5b81019080805190602001909291905050508060008190555042600181905550600034905032600660006101000a81548173ffffffffffffffffffffffffffffffffffffffff021916908373ffffffffffffffffffffffffffffffffffffffff160217905550806004819055506000600660146101000a81548160ff02191690831515021790555050506109b1806100be6000396000f3fe6080604052600436106100dd5760003560e01c8063522e11771161007f578063af640d0f11610059578063af640d0f14610475578063afe9d22f146104a0578063e1cb0e52146104f7578063fa391c6414610522576100dd565b8063522e1177146104295780636d26ec1814610440578063aa8c217c1461044a576100dd565b8063338ccd78116100bb578063338ccd78146101c857806333a1726f146102195780633ccfd60b146103825780633f5c0d3f14610399576100dd565b806316ada547146100e25780631b9c515b1461010d5780632a18838a14610138575b600080fd5b3480156100ee57600080fd5b506100f7610551565b6040518082815260200191505060405180910390f35b34801561011957600080fd5b50610122610557565b6040518082815260200191505060405180910390f35b34801561014457600080fd5b5061014d61055d565b6040518080602001828103825283818151815260200191508051906020019080838360005b8381101561018d578082015181840152602081019050610172565b50505050905090810190601f1680156101ba5780820380516001836020036101000a031916815260200191505b509250505060405180910390f35b3480156101d457600080fd5b50610217600480360360208110156101eb57600080fd5b81019080803573ffffffffffffffffffffffffffffffffffffffff1690602001909291905050506105fb565b005b34801561022557600080fd5b506103806004803603606081101561023c57600080fd5b810190808035906020019064010000000081111561025957600080fd5b82018360208201111561026b57600080fd5b8035906020019184600183028401116401000000008311171561028d57600080fd5b91908080601f016020809104026020016040519081016040528093929190818152602001838380828437600081840152601f19601f820116905080830192505050505050509192919290803590602001906401000000008111156102f057600080fd5b82018360208201111561030257600080fd5b8035906020019184600183028401116401000000008311171561032457600080fd5b91908080601f016020809104026020016040519081016040528093929190818152602001838380828437600081840152601f19601f82011690508083019250505050505050919291929080359060200190929190505050610662565b005b34801561038e57600080fd5b5061039761069c565b005b3480156103a557600080fd5b506103ae61079c565b6040518080602001828103825283818151815260200191508051906020019080838360005b838110156103ee5780820151818401526020810190506103d3565b50505050905090810190601f16801561041b5780820380516001836020036101000a031916815260200191505b509250505060405180910390f35b34801561043557600080fd5b5061043e61083a565b005b610448610857565b005b34801561045657600080fd5b5061045f61088a565b6040518082815260200191505060405180910390f35b34801561048157600080fd5b5061048a610890565b6040518082815260200191505060405180910390f35b3480156104ac57600080fd5b506104b5610896565b604051808273ffffffffffffffffffffffffffffffffffffffff1673ffffffffffffffffffffffffffffffffffffffff16815260200191505060405180910390f35b34801561050357600080fd5b5061050c6108bc565b6040518082815260200191505060405180910390f35b34801561052e57600080fd5b506105376108c4565b604051808215151515815260200191505060405180910390f35b60015481565b60055481565b60038054600181600116156101000203166002900480601f0160208091040260200160405190810160405280929190818152602001828054600181600116156101000203166002900480156105f35780601f106105c8576101008083540402835291602001916105f3565b820191906000526020600020905b8154815290600101906020018083116105d657829003601f168201915b505050505081565b6001600660146101000a81548160ff0219169083151502179055508073ffffffffffffffffffffffffffffffffffffffff166108fc6004549081150290604051600060405180830381858888f1935050505015801561065e573d6000803e3d6000fd5b5050565b82600290805190602001906106789291906108d7565b50816003908051906020019061068f9291906108d7565b5080600581905550505050565b60011515600660149054906101000a900460ff161515146106b957fe5b600060045411610731576040517f08c379a00000000000000000000000000000000000000000000000000000000081526004018080602001828103825260118152602001807f4e6570616b616e6b612070696e6967752100000000000000000000000000000081525060200191505060405180910390fd5b600660009054906101000a900473ffffffffffffffffffffffffffffffffffffffff1673ffffffffffffffffffffffffffffffffffffffff166108fc479081150290604051600060405180830381858888f19350505050158015610799573d6000803e3d6000fd5b50565b60028054600181600116156101000203166002900480601f0160208091040260200160405190810160405280929190818152602001828054600181600116156101000203166002900480156108325780601f1061080757610100808354040283529160200191610832565b820191906000526020600020905b81548152906001019060200180831161081557829003601f168201915b505050505081565b6001600660146101000a81548160ff021916908315150217905550565b6000349050806004600082825401925050819055506001600660146101000a81548160ff02191690831515021790555050565b60045481565b60005481565b600660009054906101000a900473ffffffffffffffffffffffffffffffffffffffff1681565b600047905090565b600660149054906101000a900460ff1681565b828054600181600116156101000203166002900490600052602060002090601f016020900481019282601f1061091857805160ff1916838001178555610946565b82800160010185558215610946579182015b8281111561094557825182559160200191906001019061092a565b5b5090506109539190610957565b5090565b61097991905b8082111561097557600081600090555060010161095d565b5090565b9056fea265627a7a72315820d2ab64c64290ace60934d371478c7c254756657f63c0c1a259eef751d21ad34a64736f6c63430005100032a265627a7a7231582098ae5176ced020b3c24e3b5b98b162e64a8c54a205e5b96419501e2f41a8ba7064736f6c63430005100032",
  "source": "pragma solidity ^0.5.0; //0.5.0\r\n\r\nimport \"./Bet.sol\";\r\n\r\ncontract BettingManager {\r\n\r\n    uint public BetCounter = 0;\r\n    mapping(uint => Bet) public bets;\r\n    string public bettingName;\r\n\r\n    event BetCreated (\r\n        uint id,\r\n        uint256 time, //kada? 2020-12-19\r\n        string sport, //\"Basketball\", \"Boxing\" ...\r\n        string matchoff, //\"Rytas - Zalgiris\", \"Connor McGregor - Khabib Nurmagomedov\" ...\r\n    //unique\r\n        uint amount, //kiek pinigu pastate?\r\n    //unique\r\n        int coefficient, //kofas gali buti teigiamas arba neigiamas\r\n    //unique\r\n        address payable bettor, //kas pastate uz komanda X su kokiu kofu\r\n        bool completed //ar jau gavo pinigu uz lazybas(arba jas atsauke)?\r\n    );\r\n\r\n    event WinnerPicked(\r\n        address payable addr,\r\n        string sport,\r\n        string matchoff\r\n    );\r\n\r\n    event WinnerPaid(\r\n        address payable addr,\r\n        address payable sendr,\r\n        uint amount\r\n    );\r\n\r\n    event CoefficientDiffFound(\r\n        int sbCoef,\r\n        int coefDiff,\r\n        int result\r\n    );\r\n\r\n    event CoefficientDiffNotFound(\r\n        int sbCoef,\r\n        int coefDiff,\r\n        int result\r\n    );\r\n\r\n    event BetChecked(\r\n        uint id,\r\n        string sports,\r\n        string matchoff,\r\n        address payable bettor,\r\n        bool completed\r\n    );\r\n\r\n    event ExceptionThrown(\r\n        bytes data\r\n    );\r\n\r\n    event TransactionSuccessful();\r\n    event TransactionFailed();\r\n    event ThisBalance(\r\n        uint balance_\r\n    );\r\n\r\n    constructor() public {\r\n        bettingName = \"decentralizuotos lazybos: \";\r\n    }\r\n\r\n    function createBet(string calldata _sport, string calldata _matchoff, int _coefficient) external payable {\r\n\r\n        //tikriname\r\n        require(bytes(_sport).length > 0, \"revert: sports empty\");\r\n        require(bytes(_matchoff).length > 0, \"revert: matchoff empty\");\r\n        require(_coefficient != 0, \"coefficient must not be null\"); //gali buti neigiamas arba teigiamas bet ne 0\r\n        require(msg.value > 0, \"bet money must not be null\"); //kiek pastatem\r\n\r\n        emit ThisBalance(address(this).balance);\r\n        //issaugome\r\n        bets[BetCounter] = (new Bet).value((address(this).balance))(BetCounter);\r\n        address payable betContract = address(uint160(address(bets[BetCounter])));\r\n\r\n        //betContract.send((address(this).balance));\r\n        bets[BetCounter].params(_sport, _matchoff, _coefficient);\r\n        //siunciame event'a\r\n        emit BetCreated(BetCounter, now, _sport, _matchoff, msg.value, _coefficient, msg.sender, false);\r\n        // padidiname betCounter\r\n        BetCounter++;\r\n    }\r\n\r\n    function commitBets(string calldata _sport, string calldata _matchoff, int resultCoefficient) external {\r\n\r\n        Bet [] memory eligibleBets;\r\n        uint [] memory eligibleIDs = new uint [](BetCounter);\r\n        uint eligCounter = 0;\r\n        Bet winnerContract;\r\n        address payable winner;\r\n\r\n        int coeffDifference = 10000; //skirtumas tarp ivesto koeficiento ir gauto koeficiento\r\n        for(uint i = 0; i < BetCounter; i++){ //palyginame kofa su rungtynese gautu kofu\r\n            Bet singleBet = bets[i];\r\n            //emit BetChecked(singleBet.id, singleBet.sport, singleBet.matchoff, singleBet.bettor, singleBet.completed);\r\n            if(singleBet.isCompleted() == false &&\r\n            address(singleBet.bettor()) != address(0) &&\r\n            keccak256(bytes(singleBet.sport())) == keccak256(bytes(_sport)) &&\r\n                keccak256(bytes(singleBet.matchoff())) == keccak256(bytes(_matchoff))){\r\n\r\n                //push\r\n                eligibleIDs[eligCounter] = singleBet.id();\r\n\r\n                eligCounter++;\r\n                //renkam kofa\r\n                int sbCoefficient = singleBet.coefficient();\r\n                if(abs(abs(sbCoefficient) - abs(resultCoefficient)) < abs(coeffDifference)){\r\n                    coeffDifference = abs(abs(sbCoefficient) - abs(resultCoefficient));\r\n                    winner = singleBet.bettor();\r\n                    winnerContract = singleBet;\r\n                    //emit CoefficientDiffFound(sbCoefficient, coeffDifference, resultCoefficient);\r\n                } else {\r\n                    //emit CoefficientDiffNotFound(sbCoefficient, coeffDifference, resultCoefficient);\r\n                }\r\n            }\r\n        }\r\n\r\n        emit WinnerPicked(winner, _sport, _matchoff);\r\n\r\n        for(uint i = 0; i < eligCounter; i++){\r\n\r\n            uint _IDNum = eligibleIDs[i];\r\n            address payable _bettor = bets[eligibleIDs[i]].bettor();\r\n\r\n            Bet unpaidBet = bets[_IDNum];\r\n            unpaidBet.complete(); //set bet with ID to complete\r\n\r\n            bets[_IDNum] = unpaidBet;\r\n\r\n            if(unpaidBet.bettor() != winner){\r\n                emit WinnerPaid(winner, unpaidBet.bettor(), unpaidBet.amount());\r\n                if(unpaidBet.amount() > 0){\r\n                    unpaidBet.sendMoney(winner);\r\n                }\r\n            }\r\n        }\r\n    }\r\n\r\n    function abs(int x) private pure returns (int) {\r\n        return x >= 0 ? x : -x;\r\n    }\r\n}",
  "sourcePath": "C:/Users/Mindaugas/Documents/backend/dLazybos/dLazybos/src/contracts/BettingManager.sol",
  "compiler": {
    "name": "solc",
    "version": "0.5.16+commit.9c3226ce.Emscripten.clang"
  },
  "schemaVersion": "3.3.3",
  "updatedAt": "2020-12-24T11:49:46.633Z",
  "networkType": "ethereum",
  "devdoc": {
    "methods": {}
  },
  "userdoc": {
    "methods": {}
  }
}